:020000020000FC
:040000000C941E003E
:040010000C945A00F2
:100038000C946C0030E040E001E004B905B900E937
:100048000AB95F985C9800E007B902E0009368007D
:100058000EE000936C0002E004BD05E005BD0DE76D
:1000680007BD02E000936E008DE77894C32F0E94CD
:1000780078005F2F0E94830010E10E94A9005E2F84
:100088000E94830010E20E94A900C42F0E947800F9
:100098005F2F0E9483000E7F10E40E94A9005E2F4C
:1000A8000E94830010E80E94A900E0CF319B05C0A0
:1000B800329B07C0339B08C0189502E000936E007E
:1000C800189530E040E0189500E000936E00189510
:1000D8008A9521F48DE733950E94730018953C3377
:1000E80011F4439530E00895DAE0E0E0F0E0FC2F09
:1000F800FD170CF403C0FD1BE395FACF08955030AB
:1001080011F403E00895513011F40FE908955230C5
:1001180011F405E20895533011F40DE008955430B8
:1001280011F409E90895553011F409E40895563099
:1001380011F401E40895573011F40FE1089558308F
:1001480011F401E0089509E108950E94B100012F1A
:100158000E94B1005C9A5C98089528E05F98069523
:1001680010F0289801C0289A5F9A2A95B9F708953F
:00000001FF
