S01700004763634170706C69636174696F6E312E737265635B
S11300000C9434000C9451000C9451000C94510045
S11300100C9451000C9451000C9451000C94510018
S11300200C9451000C9451000C9451000C94510008
S11300300C9451000C9451000C9451000C945100F8
S11300400C9451000C9451000C9451000C945100E8
S11300500C9451000C9493000C9451000C94510096
S11300600C9451000C94510011241FBECFEFD8E022
S1130070DEBFCDBF11E0A0E0B1E0ECE8F4E002C0E7
S113008005900D92A430B107D9F721E0A4E0B1E0C6
S113009001C01D92AC31B207E1F70E949B010C94A0
S11300A044020C940000003011F403E00895013080
S11300B011F40FE90895023011F405E208950330B4
S11300C011F40DE00895043011F409E908950530A0
S11300D011F409E40895063011F401E40895073099
S11300E011F40FE10895083011F401E0089509E1D5
S11300F0089531E034B935B930E93AB95F985C987C
S11301000E948800012F0E9488005C9A5C980895E0
S113011028E05F98069510F0289801C0289A5F9A05
S11301202A95B9F708951F920F920FB60F921124D2
S11301308F929F92AF92BF92CF92DF92EF92FF92F3
S11301402F933F934F935F936F937F938F939F93DB
S1130150AF93BF93EF93FF938091780090917900D0
S113016090938B0080938A008091180190911901DB
S1130170A0911A01B0911B0184369105A105B10526
S113018021F120917800309179004091140150912F
S113019015016091160170911701420F531F611DE3
S11301A0711D4093140150931501609316017093CF
S11301B017010196A11DB11D809318019093190197
S11301C0A0931A01B0931B0191C060911401709126
S11301D01501809116019091170124E630E040E06A
S11301E050E00E94E90120931001309311014093E3
S11301F0120150931301A8E8B3E10E9408026B01B5
S11302007C01992334F42FEFC20E23E0D21EE11CAB
S1130210F11C0B2EBAE0F594E794D794C794BA95E1
S1130220D1F7B02DC0920C01D0920D01E0920E01D5
S1130230F0920F01C701B60120E137E240E050E03F
S11302400E94E9010F2EF8EE8F2EF3E09F2EA12CD1
S1130250B12CF02DA50194010E94E90130930B010A
S113026020930A01C701B601A50194010E94E90186
S11302700F2EF4E68F2E912CA12CB12CF02DA5017C
S113028094010E94E9013093090120930801C701F8
S1130290B601A50194010E94E9010F2EFAE08F2E08
S11302A0912CA12CB12CF02DA50194010E94E901FF
S11302B03093070120930601C701B601A5019401FB
S11302C00E94E901709305016093040110921401E6
S11302D01092150110921601109217011092180134
S11302E01092190110921A0110921B01FF91EF91C3
S11302F0BF91AF919F918F917F916F915F914F913A
S11303003F912F91FF90EF90DF90CF90BF90AF90EF
S11303109F908F900F900FBE0F901F901895ECE751
S1130320F0E0808180648083EAE7F0E080818F6E72
S11303308083789408950E948F01E0910201F091E6
S113034003018091040180830E945300E091000125
S1130350F091010180E180830E947900E091020123
S1130360F09103018091060180830E945300E09183
S11303700001F091010180E280830E947900E09104
S11303800201F09103018091080180830E945300CF
S1130390E0910001F091010180E480830E947900E2
S11303A0E0910201F091030180910A0180830E948F
S11303B05300E0910201F091030180818E7F8083DC
S11303C0E0910001F091010180E880830E947900AE
S11303D0B4CF052E97FB1EF400940E94000257FD33
S11303E007D00E94130207FC03D04EF40C940002C1
S11303F050954095309521953F4F4F4F5F4F08954D
S113040090958095709561957F4F8F4F9F4F08957C
S11304100E943502A59F900DB49F900DA49F800D5E
S1130420911D11240895A1E21A2EAA1BBB1BFD01E4
S11304300DC0AA1FBB1FEE1FFF1FA217B307E407BF
S1130440F50720F0A21BB30BE40BF50B661F771F17
S1130450881F991F1A9469F76095709580959095F7
S11304609B01AC01BD01CF010895A29FB001B39FD0
S1130470C001A39F700D811D1124911DB29F700DA9
S10F0480811D1124911D0895F894FFCFF4
S107048C1100100047
S9030000FC
